:040000008031112812
:100008007E14803120007F08F0000B198B1E0D280C
:100018000B117008FF007E100900803113287E1034
:10002800200080313528F201F30120000E15000070
:1000380020000E1125287208013EF2000030733DA1
:10004800F3008D1A1F287308803AF100803071027E
:10005800031D302801307202031C080020000E170F
:1000680008008031452080318031172080311130DF
:10007800F5003A30F400F40B3F28F50B3F28000058
:1000880038288B170B178B168B16210095014130DA
:100098002000980021008E01F0308D0020008E0194
:0200A80008004E
:020000040001F9
:04000E00A4F9FFDD75
:00000001FF
